{
  "contractName": "Delance",
  "abi": [
    {
      "inputs": [],
      "stateMutability": "nonpayable",
      "type": "constructor"
    },
    {
      "anonymous": false,
      "inputs": [
        {
          "indexed": false,
          "internalType": "uint256",
          "name": "id",
          "type": "uint256"
        },
        {
          "indexed": false,
          "internalType": "string",
          "name": "projectTitle",
          "type": "string"
        },
        {
          "indexed": false,
          "internalType": "uint256",
          "name": "price",
          "type": "uint256"
        },
        {
          "indexed": false,
          "internalType": "address",
          "name": "owner",
          "type": "address"
        },
        {
          "indexed": false,
          "internalType": "bool",
          "name": "purchased",
          "type": "bool"
        }
      ],
      "name": "ProductCreated",
      "type": "event"
    },
    {
      "anonymous": false,
      "inputs": [
        {
          "indexed": false,
          "internalType": "uint256",
          "name": "id",
          "type": "uint256"
        },
        {
          "indexed": false,
          "internalType": "string",
          "name": "projectTitle",
          "type": "string"
        },
        {
          "indexed": false,
          "internalType": "uint256",
          "name": "price",
          "type": "uint256"
        },
        {
          "indexed": false,
          "internalType": "address",
          "name": "owner",
          "type": "address"
        },
        {
          "indexed": false,
          "internalType": "bool",
          "name": "purchased",
          "type": "bool"
        }
      ],
      "name": "ProjectComplete",
      "type": "event"
    },
    {
      "inputs": [],
      "name": "productCount",
      "outputs": [
        {
          "internalType": "uint256",
          "name": "",
          "type": "uint256"
        }
      ],
      "stateMutability": "view",
      "type": "function"
    },
    {
      "inputs": [
        {
          "internalType": "uint256",
          "name": "",
          "type": "uint256"
        }
      ],
      "name": "products",
      "outputs": [
        {
          "internalType": "uint256",
          "name": "id",
          "type": "uint256"
        },
        {
          "internalType": "string",
          "name": "projectTitle",
          "type": "string"
        },
        {
          "internalType": "uint256",
          "name": "price",
          "type": "uint256"
        },
        {
          "internalType": "address",
          "name": "owner",
          "type": "address"
        },
        {
          "internalType": "bool",
          "name": "purchased",
          "type": "bool"
        }
      ],
      "stateMutability": "view",
      "type": "function"
    },
    {
      "inputs": [],
      "name": "projectTitle",
      "outputs": [
        {
          "internalType": "string",
          "name": "",
          "type": "string"
        }
      ],
      "stateMutability": "view",
      "type": "function"
    },
    {
      "inputs": [
        {
          "internalType": "string",
          "name": "_projectTitle",
          "type": "string"
        },
        {
          "internalType": "uint256",
          "name": "_price",
          "type": "uint256"
        }
      ],
      "name": "createProduct",
      "outputs": [],
      "stateMutability": "nonpayable",
      "type": "function"
    },
    {
      "inputs": [
        {
          "internalType": "uint256",
          "name": "_id",
          "type": "uint256"
        }
      ],
      "name": "completeJob",
      "outputs": [],
      "stateMutability": "payable",
      "type": "function"
    }
  ],
  "bytecode": "0x608060405260006001553480156200001657600080fd5b506040518060400160405280602081526020017f446563656e7472616c697a656420467265656c616e636520506c6174666f726d81525060009080519060200190620000649291906200006b565b506200017f565b82805462000079906200014a565b90600052602060002090601f0160209004810192826200009d5760008555620000e9565b82601f10620000b857805160ff1916838001178555620000e9565b82800160010185558215620000e9579182015b82811115620000e8578251825591602001919060010190620000cb565b5b509050620000f89190620000fc565b5090565b5b8082111562000117576000816000905550600101620000fd565b5090565b7f4e487b7100000000000000000000000000000000000000000000000000000000600052602260045260246000fd5b600060028204905060018216806200016357607f821691505b6020821081036200017957620001786200011b565b5b50919050565b610cf7806200018f6000396000f3fe60806040526004361061004a5760003560e01c80637acc0b201461004f578063a1c0d32f14610090578063c3e20c9f146100ac578063e0f6ef87146100d7578063e9300c6c14610102575b600080fd5b34801561005b57600080fd5b5061007660048036038101906100719190610837565b61012b565b604051610087959493929190610968565b60405180910390f35b6100aa60048036038101906100a59190610837565b610216565b005b3480156100b857600080fd5b506100c1610550565b6040516100ce91906109c2565b60405180910390f35b3480156100e357600080fd5b506100ec6105de565b6040516100f991906109e4565b60405180910390f35b34801561010e57600080fd5b5061012960048036038101906101249190610b34565b6105e4565b005b600260205280600052604060002060009150905080600001549080600101805461015490610bbf565b80601f016020809104026020016040519081016040528092919081815260200182805461018090610bbf565b80156101cd5780601f106101a2576101008083540402835291602001916101cd565b820191906000526020600020905b8154815290600101906020018083116101b057829003601f168201915b5050505050908060020154908060030160009054906101000a900473ffffffffffffffffffffffffffffffffffffffff16908060030160149054906101000a900460ff16905085565b6000600260008381526020019081526020016000206040518060a00160405290816000820154815260200160018201805461025090610bbf565b80601f016020809104026020016040519081016040528092919081815260200182805461027c90610bbf565b80156102c95780601f1061029e576101008083540402835291602001916102c9565b820191906000526020600020905b8154815290600101906020018083116102ac57829003601f168201915b50505050508152602001600282015481526020016003820160009054906101000a900473ffffffffffffffffffffffffffffffffffffffff1673ffffffffffffffffffffffffffffffffffffffff1673ffffffffffffffffffffffffffffffffffffffff1681526020016003820160149054906101000a900460ff1615151515815250509050600081606001519050600082600001511180156103725750600154826000015111155b61037b57600080fd5b81608001511561038a57600080fd5b3373ffffffffffffffffffffffffffffffffffffffff168173ffffffffffffffffffffffffffffffffffffffff16036103c257600080fd5b33826060019073ffffffffffffffffffffffffffffffffffffffff16908173ffffffffffffffffffffffffffffffffffffffff16815250506001826080019015159081151581525050816002600085815260200190815260200160002060008201518160000155602082015181600101908051906020019061044592919061074a565b506040820151816002015560608201518160030160006101000a81548173ffffffffffffffffffffffffffffffffffffffff021916908373ffffffffffffffffffffffffffffffffffffffff16021790555060808201518160030160146101000a81548160ff0219169083151502179055509050508073ffffffffffffffffffffffffffffffffffffffff166108fc349081150290604051600060405180830381858888f19350505050158015610500573d6000803e3d6000fd5b507f4b0d1a9776985f36dfd74c4a230240b2851e8b5227c9c998f4c43472cc8641a760015483602001518460400151336001604051610543959493929190610968565b60405180910390a1505050565b6000805461055d90610bbf565b80601f016020809104026020016040519081016040528092919081815260200182805461058990610bbf565b80156105d65780601f106105ab576101008083540402835291602001916105d6565b820191906000526020600020905b8154815290600101906020018083116105b957829003601f168201915b505050505081565b60015481565b600160008154809291906105f790610c1f565b9190505550670de0b6b3a7640000816106109190610c67565b90506040518060a0016040528060015481526020018381526020018281526020013373ffffffffffffffffffffffffffffffffffffffff1681526020016000151581525060026000600154815260200190815260200160002060008201518160000155602082015181600101908051906020019061068f92919061074a565b506040820151816002015560608201518160030160006101000a81548173ffffffffffffffffffffffffffffffffffffffff021916908373ffffffffffffffffffffffffffffffffffffffff16021790555060808201518160030160146101000a81548160ff0219169083151502179055509050507fbc59c0c8165864dcceb377dd07d8f431d4303f8e501cb0a0374a10cc68d71836600154838333600060405161073e959493929190610968565b60405180910390a15050565b82805461075690610bbf565b90600052602060002090601f01602090048101928261077857600085556107bf565b82601f1061079157805160ff19168380011785556107bf565b828001600101855582156107bf579182015b828111156107be5782518255916020019190600101906107a3565b5b5090506107cc91906107d0565b5090565b5b808211156107e95760008160009055506001016107d1565b5090565b6000604051905090565b600080fd5b600080fd5b6000819050919050565b61081481610801565b811461081f57600080fd5b50565b6000813590506108318161080b565b92915050565b60006020828403121561084d5761084c6107f7565b5b600061085b84828501610822565b91505092915050565b61086d81610801565b82525050565b600081519050919050565b600082825260208201905092915050565b60005b838110156108ad578082015181840152602081019050610892565b838111156108bc576000848401525b50505050565b6000601f19601f8301169050919050565b60006108de82610873565b6108e8818561087e565b93506108f881856020860161088f565b610901816108c2565b840191505092915050565b600073ffffffffffffffffffffffffffffffffffffffff82169050919050565b60006109378261090c565b9050919050565b6109478161092c565b82525050565b60008115159050919050565b6109628161094d565b82525050565b600060a08201905061097d6000830188610864565b818103602083015261098f81876108d3565b905061099e6040830186610864565b6109ab606083018561093e565b6109b86080830184610959565b9695505050505050565b600060208201905081810360008301526109dc81846108d3565b905092915050565b60006020820190506109f96000830184610864565b92915050565b600080fd5b600080fd5b7f4e487b7100000000000000000000000000000000000000000000000000000000600052604160045260246000fd5b610a41826108c2565b810181811067ffffffffffffffff82111715610a6057610a5f610a09565b5b80604052505050565b6000610a736107ed565b9050610a7f8282610a38565b919050565b600067ffffffffffffffff821115610a9f57610a9e610a09565b5b610aa8826108c2565b9050602081019050919050565b82818337600083830152505050565b6000610ad7610ad284610a84565b610a69565b905082815260208101848484011115610af357610af2610a04565b5b610afe848285610ab5565b509392505050565b600082601f830112610b1b57610b1a6109ff565b5b8135610b2b848260208601610ac4565b91505092915050565b60008060408385031215610b4b57610b4a6107f7565b5b600083013567ffffffffffffffff811115610b6957610b686107fc565b5b610b7585828601610b06565b9250506020610b8685828601610822565b9150509250929050565b7f4e487b7100000000000000000000000000000000000000000000000000000000600052602260045260246000fd5b60006002820490506001821680610bd757607f821691505b602082108103610bea57610be9610b90565b5b50919050565b7f4e487b7100000000000000000000000000000000000000000000000000000000600052601160045260246000fd5b6000610c2a82610801565b91507fffffffffffffffffffffffffffffffffffffffffffffffffffffffffffffffff8203610c5c57610c5b610bf0565b5b600182019050919050565b6000610c7282610801565b9150610c7d83610801565b9250817fffffffffffffffffffffffffffffffffffffffffffffffffffffffffffffffff0483118215151615610cb657610cb5610bf0565b5b82820290509291505056fea26469706673582212206b3f504b34ee8769fc4aa710d234f811f6ebc9755f1ad68f92c691448722eb0a64736f6c634300080e0033",
  "immutableReferences": {},
  "source": "// SPDX-Lisence-Identifier: MIT\npragma solidity >=0.4.22 <0.9.0;\n\ncontract Delance {\n    string public projectTitle;\n    uint public productCount = 0;\n    // mapping over all jobs\n    mapping(uint => Product) public products;\n\n    struct Product {\n        uint id;\n        string projectTitle;\n        uint price;\n        address owner;\n        bool purchased;\n    }\n\n    event ProductCreated(\n        uint id,\n        string projectTitle,\n        uint price,\n        address owner,\n        bool purchased\n    );\n\n    event ProjectComplete(\n        uint id,\n        string projectTitle,\n        uint price,\n        address owner,\n        bool purchased\n    );\n\n    constructor() public{\n        projectTitle = \"Decentralized Freelance Platform\";\n    }\n\n    function createProduct(string memory _projectTitle, uint _price) public {\n        // Require a valid projectTitle\n        // require(bytes(_projectTitle).length > 0);           \n        // require(_price > 0);    // Require a valid price\n        productCount ++;            // Increment product count\n        _price = _price * 10**18;\n        // Create the product\n        products[productCount] = \n            Product(productCount ,_projectTitle ,_price, msg.sender, false);\n            \n        // Trigger an event\n        emit ProductCreated(productCount, _projectTitle,_price, msg.sender, false);\n    }\n\n    function completeJob(uint _id) public payable {\n        Product memory _product = products[_id];\n        address _seller = _product.owner;\n\n        require(_product.id > 0 && _product.id <= productCount);\n        // require(msg.value >= _product.price);           // Require that there is enough Ether in the transaction\n        require(!_product.purchased);           // Require that the product has not been purchased already\n        require(_seller != msg.sender);         // Require that the buyer is not the seller\n\n        _product.owner = msg.sender;            // Transfer ownership to the buyer\n        _product.purchased = true;\n        products[_id] = _product;           // Update the product\n\n        payable(_seller).transfer(msg.value);           // Pay the seller by sending them Ether\n        emit ProjectComplete(productCount, _product.projectTitle, _product.price, msg.sender, true);\n    }\n}\n",
  "sourcePath": "/home/armish/University/Semester-8/FYP-II/Delance-app/contracts/Delance.sol",
  "compiler": {
    "name": "solc",
    "version": "0.8.14+commit.80d49f37.Emscripten.clang"
  },
  "schemaVersion": "3.4.7",
  "updatedAt": "2022-10-27T00:02:25.804Z",
  "devdoc": {
    "kind": "dev",
    "methods": {},
    "version": 1
  },
  "userdoc": {
    "kind": "user",
    "methods": {},
    "version": 1
  }
}